:020000040800F2
:100000000028002075140008050E00080B0E0008DB
:10001000110E0008170E00081D0E00080000000059
:10002000000000000000000000000000230E000897
:100030002F0E0008000000003B0E0008470E0008CD
:10004000BD140008BD140008BD140008BD1400084C
:10005000BD140008BD140008BD140008BD1400083C
:10006000BD140008BD140008BD140008BD1400082C
:10007000BD140008BD140008BD140008BD1400081C
:10008000BD140008BD140008BD140008BD1400080C
:10009000BD140008BD140008BD140008BD140008FC
:1000A000BD140008BD140008BD140008BD140008EC
:1000B000550E0008BD14000800000000BD14000823
:1000C000BD1400080000000000000000BD1400087E
:1000D00000000000BD140008BD140008000000006E
:1000E000BD140008BD140008BD1400080000000085
:1000F0000000000000000000000000000000000000
:0C01000000000000000000005FF808F1A3
:10010C0010B5054C237833B9044B13B10448AFF345
:10011C0000800123237010BD780000200000000037
:10012C00E42A000808B5034B1BB103490348AFF39D
:10013C00008008BD000000007C000020E42A0008BC
:10014C0080B400AF024B1B781846BD4680BC70478C
:10015C009900002080B400AF024B1B781846BD46B6
:10016C0080BC70479A00002080B400AF024B1B7813
:10017C001846BD4680BC70479B00002080B400AF81
:10018C00024B1B781846BD4680BC70479F00002070
:10019C0080B500AF6F4B1B78022B00F0CC80022B8C
:1001AC0000F3D680002B03D0012B00F0B080CFE001
:1001BC00002000F05BFB0346002B00F0A880654B91
:1001CC0001221A70644B1B780133DAB2624B1A703D
:1001DC00614B1B78042B02D95F4B01221A705E4BCA
:1001EC001B78012B02D15D4B01221A705A4B1B78E4
:1001FC00022B2BD1594B00221A7063226321002051
:10020C0000F0BCFE63226321002000F0E9FF544B98
:10021C001B78544AA2FB0323DB08DBB219460220ED
:10022C0000F058FB4E4B1A784E4BA3FB0213D90827
:10023C000B469B000B445B00D31ADBB21946032020
:10024C0000F048FB464B1A78474B1A70424B1B7810
:10025C00032B28D163220021632000F08FFE632240
:10026C000021632000F0BCFF404B1B783D4AA2FBF1
:10027C000323DB08DBB21946022000F02BFB3B4BBF
:10028C001A78384BA3FB0213D9080B469B000B447E
:10029C005B00D31ADBB21946032000F01BFB334B77
:1002AC001A78334B1A702C4B1B78042B28D1002254
:1002BC006321632000F062FE00226321632000F0C2
:1002CC008FFF2C4B1B78274AA2FB0323DB08DBB2E6
:1002DC001946022000F0FEFA264B1A78214BA3FB9C
:1002EC000213D9080B469B000B445B00D31ADBB2FC
:1002FC001946032000F0EEFA1E4B1A781E4B1A70AA
:10030C00154B1B781946012000F0E4FA20E0002080
:10031C0000F0ACFA0346002B03D10E4B00221A70EE
:10032C0013E0002000F0BCFA0346002B0DD0094B63
:10033C0002221A7009E0002000F098FA0346002B04
:10034C0005D1044B00221A7001E000BF00E000BF91
:10035C0000BF80BD94000020980000209F0000206A
:10036C0099000020CDCCCCCC9C0000209A00002021
:10037C009D0000209B0000209E00002080B500AF57
:10038C00604B1B78022B00F0AC80022B00F3B88082
:10039C00002B03D0012B00F09080B1E0012000F085
:1003AC0065FA0346002B00F0A680564B01221A700A
:1003BC00554B1B78022B27D1544B1B780133DAB2E7
:1003CC00524B1A70514B1B78632B02D94F4B0122A5
:1003DC001A704E4B1A784E4BA3FB0213D9080B46DE
:1003EC009B000B445B00D31ADBB21946032000F0D0
:1003FC0071FA464B1B78464AA2FB0323DB08DBB29F
:10040C001946022000F066FA3F4B1B78032B27D1CC
:10041C00404B1B780133DAB23E4B1A703D4B1B78C4
:10042C00632B02D93B4B01221A703A4B1A78384B8A
:10043C00A3FB0213D9080B469B000B445B00D31A99
:10044C00DBB21946032000F045FA324B1B78304AD8
:10045C00A2FB0323DB08DBB21946022000F03AFAB8
:10046C00294B1B78042B46D12B4B1B780133DAB26A
:10047C00294B1A70284B1B78632B02D9264B01226F
:10048C001A70254B1A78224BA3FB0213D9080B4682
:10049C009B000B445B00D31ADBB21946032000F01F
:1004AC0019FA1D4B1B781A4AA2FB0323DB08DBB29B
:1004BC001946022000F00EFA1DE0012000F0D6F9DA
:1004CC000346002B03D10F4B00221A7015E00120BC
:1004DC0000F0E6F90346002B0FD00A4B02221A70EB
:1004EC000BE0012000F0C2F90346002B07D1054BAD
:1004FC0000221A7003E000BF02E000BF00E000BF62
:10050C0000BF80BD95000020980000209C000020BA
:10051C00CDCCCCCC9D0000209E00002080B500AF3F
:10052C00664B1B78022B00F0B880022B00F3C480C2
:10053C00002B03D0012B00F09C80BDE0022000F0CA
:10054C0095F90346002B00F0B2805C4B01221A7027
:10055C005B4B1B78022B2BD15A4B1B78002B09D0F1
:10056C00584B1B78013BDAB2564B1A70554B1B7823
:10057C00002B02D1534B63221A70524B1A78524BF8
:10058C00A3FB0213D9080B469B000B445B00D31A48
:10059C00DBB21946032000F09DF94A4B1B784A4AFE
:1005AC00A2FB0323DB08DBB21946022000F092F910
:1005BC00434B1B78032B2BD1444B1B78002B09D0BE
:1005CC00424B1B78013BDAB2404B1A703F4B1B7805
:1005DC00002B02D13D4B63221A703C4B1A783A4BDC
:1005EC00A3FB0213D9080B469B000B445B00D31AE8
:1005FC00DBB21946032000F06DF9344B1B78324AFC
:10060C00A2FB0323DB08DBB21946022000F062F9DF
:10061C002B4B1B78042B4AD12D4B1B78002B09D06C
:10062C002B4B1B78013BDAB2294B1A70284B1B78E9
:10063C00002B02D1264B63221A70254B1A78224BC1
:10064C00A3FB0213D9080B469B000B445B00D31A87
:10065C00DBB21946032000F03DF91D4B1B781A4AFA
:10066C00A2FB0323DB08DBB21946022000F032F9AF
:10067C001DE0022000F0FAF80346002B03D10F4BCB
:10068C0000221A7015E0022000F00AF90346002B34
:10069C000FD00A4B02221A700BE0022000F0E6F891
:1006AC000346002B07D1054B00221A7003E000BF54
:1006BC0002E000BF00E000BF00BF80BD960000203C
:1006CC00980000209C000020CDCCCCCC9D000020BC
:1006DC009E00002080B500AF284B1B78022B3CD02D
:1006EC00022B49DC002B02D0012B22D044E003204A
:1006FC0000F0BCF80346002B39D0204B01221A70B5
:10070C001F4B1B78022B03D11E4B1A781E4B1A70F1
:10071C001B4B1B78032B03D11C4B1A781C4B1A70E8
:10072C00174B1B78042B22D11A4B1A781A4B1A70C0
:10073C001DE0032000F09AF80346002B03D10F4B69
:10074C0000221A7015E0032000F0AAF80346002BD3
:10075C000FD00A4B02221A700BE0032000F086F82F
:10076C000346002B07D1054B00221A7003E000BF93
:10077C0002E000BF00E000BF00BF80BD970000207A
:10078C00980000209C000020990000209D00002073
:10079C009A0000209E0000209B00002090B583B0A2
:1007AC0000AF0023FB714AE0FA79FB792849895C98
:1007BC00284AD154FB79284A52F82320FB7927493F
:1007CC0031F81330FC791946104601F05DF90346F7
:1007DC001A461F4B1A55FB791D4AD25CFB791D49F1
:1007EC00CB5C9A4228D1FA79FB791949895C1C4A6D
:1007FC00D154FB791A4AD35C002B14D1FB79194ADA
:10080C0032F81330632B09D8FB79164A32F81320CF
:10081C00013291B2134A22F813100DE0FB79124AFF
:10082C000121D15408E0FB790E4A002122F8131063
:10083C00FB790D4A0021D154FB790133FB71FB7913
:10084C00032BB1D900BF00BF0C37BD4690BD00BF14
:10085C00A4000020A80000200800002000000020B8
:10086C00A0000020B0000020AC00002080B483B0B9
:10087C0000AF0346FB71FB79032B01D9002307E082
:10088C00FB79064AD35C002B0CBF01230023DBB29F
:10089C0018460C37BD4680BC704700BFA000002036
:1008AC0080B483B000AF0346FB71FB79032B01D9F5
:1008BC00FF2307E0FB79064AD35C012B0CBF012315
:1008CC000023DBB218460C37BD4680BC704700BF16
:1008DC00AC00002080B483B000AF03460A46FB7125
:1008EC001346BB71FB79032B07D8BB790A2B06D8AF
:1008FC00FB790549BA79CA5402E000BF00E000BF99
:10090C000C37BD4680BC7047B800002080B582B063
:10091C0000AF0346FB71FB79032B0CD8FB79084A1B
:10092C0052F82300FB79074A32F81330012219469A
:10093C0001F0C1F800E000BF0837BD4680BD00BF24
:10094C002C0000202400002080B584B000AF0346AA
:10095C00FB710023FB7323E0FA79FB7B42FA03F370
:10096C0003F00103002B0CD0FB7B114A52F823003F
:10097C00FB7B104A32F813300022194601F09BF829
:10098C000BE0FB7B0A4A52F82300FB7B094A32F846
:10099C0013300122194601F08EF8FB7B0133FB73F7
:1009AC00FB7B062BD8D900BF00BF1037BD4680BDDE
:1009BC004C0000203C00002080B582B000AF034604
:1009CC00FB71FB79032B0CD8FB79084A52F82300F6
:1009DC00FB79074A32F813300022194601F06BF804
:1009EC0000E000BF0837BD4680BD00BF2C000020D2
:1009FC002400002080B500AF114B1B781846FFF780
:100A0C0085FF0F4B1B7801335A4203F0030302F0AE
:100A1C00030258BF5342DAB2094B1A70084B1B78C9
:100A2C001A46084B9B5C1A46074B9B5C1846FFF713
:100A3C008BFF034B1B781846FFF7BEFF00BF80BD32
:100A4C00BC000020B80000201800002080B500AFCA
:100A5C0000F030FD00F08AF800F0C4F800F00EF958
:100A6C003C4B00221A703C4B00221A703B4B00226C
:100A7C001A703B4B00221A7000F058FA002100202B
:100A8C00FFF728FF00210120FFF724FF002102209F
:100A9C00FFF720FF00210320FFF71CFF314801F076
:100AAC005BFC0A21002000F0DFF90A21012000F094
:100ABC00DBF90A21022000F0D7F9FFF769FBFFF7F9
:100ACC005DFCFFF72BFDFFF705FEFFF757FB034619
:100ADC001A46204B1A701F4B1B78012B2FD1FFF796
:100AEC002FFB03461A461C4B1A70FFF733FB0346C9
:100AFC001A461A4B1A70FFF737FB03461A46184B67
:100B0C001A70194B5B78012B19D1134B1B781846B3
:100B1C00124B1B781946124B1B781A4600F02EFA12
:100B2C000D4B1B7818460D4B1B7819460C4B1B783C
:100B3C001A4600F055FBC821012000F095F90A4B2C
:100B4C001B78012BB9D1FFF755FF3221002000F0A3
:100B5C008BF9B2E79F000020990000209A0000203A
:100B6C009B000020D8000020D400002080B590B05D
:100B7C0000AF07F1180328220021184601F0A4FF4A
:100B8C003B1D00221A605A609A60DA601A610223D7
:100B9C00BB610123BB621023FB6200237B6307F163
:100BAC001803184600F0A0FF0346002B01D000F0FC
:100BBC00C7F80F237B600023BB600023FB6000237E
:100BCC003B6100237B613B1D0021184601F00CFAB0
:100BDC000346002B01D000F0B3F800BF4037BD46F0
:100BEC0080BD000080B586B000AF07F1080300227D
:100BFC001A605A609A60DA603B4600221A605A60AA
:100C0C001D4B4FF080421A601B4B41F63F725A60ED
:100C1C00194B00229A60184B0922DA60164B0022FD
:100C2C001A61154B00229A61134801F045FB0346EB
:100C3C00002B01D000F084F84FF48053BB6007F117
:100C4C00080319460C4801F0DBFC0346002B01D0CD
:100C5C0000F076F800233B6000237B603B4619468E
:100C6C00054801F0A3FE0346002B01D000F068F804
:100C7C0000BF1837BD4680BDD800002080B586B0B7
:100C8C0000AF07F1080300221A605A609A60DA601C
:100C9C00284B9B69274A43F004039361254B9B69BE
:100CAC0003F004037B607B68224B9B69214A43F071
:100CBC00080393611F4B9B6903F008033B603B687F
:100CCC0000224FF4FC611C4800F0F5FE00224FF6A8
:100CDC00F0611A4800F0EFFE0F23BB600023FB60AD
:100CEC0000233B6107F108031946134800F052FD3D
:100CFC004FF4FC63BB600123FB6000233B610223C8
:100D0C007B6107F1080319460B4800F043FD4FF6D1
:100D1C00F063BB600123FB6000233B6102237B611A
:100D2C0007F108031946054800F034FD00BF1837D9
:100D3C00BD4680BD0010024000080140000C01407F
:100D4C0080B400AF72B600BFFEE7000080B485B07F
:100D5C0000AF154B9B69144A43F001039361124B8E
:100D6C009B6903F00103BB60BB680F4BDB690E4A48
:100D7C0043F08053D3610C4BDB6903F080537B60F1
:100D8C007B680A4B5B68FB60FB6823F0E063FB60ED
:100D9C00FB6843F08063FB60044AFB68536000BF50
:100DAC001437BD4680BC7047001002400000014063
:100DBC0080B584B000AF78607B681B68B3F1804F5E
:100DCC0013D10C4BDB690B4A43F00103D361094B84
:100DDC00DB6903F00103FB60FB68002200211C208F
:100DEC0000F0A1FC1C2000F0BAFC00BF1037BD467F
:100DFC0080BD00BF0010024080B400AFFEE780B49D
:100E0C0000AFFEE780B400AFFEE780B400AFFEE7B2
:100E1C0080B400AFFEE780B400AF00BFBD4680BC1D
:100E2C00704780B400AF00BFBD4680BC704780B433
:100E3C0000AF00BFBD4680BC704780B500AF00F06E
:100E4C007FFB00BF80BD000080B500AF024801F001
:100E5C00CFFA00BF80BD00BFD800002080B400AF27
:100E6C0000BFBD4680BC704780B483B000AF034662
:100E7C003960FB71FB79022B0DD8FB793A68084974
:100E8C00A1FB0212D208074941F82320FB79064A3C
:100E9C000021D15400E000BF0C37BD4680BC704728
:100EAC00CDCCCCCCC8000020D400002080B483B0C2
:100EBC0000AF0023FB711AE0FB79114A52F8233082
:100ECC00002B11D0FB790E4A52F82320013A0C4921
:100EDC0041F82320FB790A4A52F82330002B03D126
:100EEC00FB79084A0121D154FB790133FB71FB7961
:100EFC00022BE1D900BF00BF0C37BD4680BC704748
:100F0C00C8000020D400002080B582B000AF78600B
:100F1C007B681B68B3F1804F03D1FFF73FFCFFF7F1
:100F2C00C5FF00BF0837BD4680BD000080B500AFCF
:100F3C0001222021104800F0BEFD012240210E4864
:100F4C0000F0B9FD012280210B4800F0B4FD012214
:100F5C004FF48071084800F0AEFD01224FF400718F
:100F6C00054800F0A8FD01224FF48061024800F012
:100F7C00A2FD00BF80BD00BF0008014080B584B059
:100F8C0000AFF860B9607A60FB68002B08D1BB68D1
:100F9C00002B05D17B68002B02D1FFF7C7FF13E1B3
:100FAC00FB68002B00F0D980BB68002B00F0D580CB
:100FBC007B68002B00F0D180854B1B78022B00F056
:100FCC008780022B00F30081002B02D0012B40D034
:100FDC00FAE0002220217F4800F06DFD0122402123
:100FEC007C4800F068FD012280217A4800F063FD06
:100FFC00794B1B68FA68D31A784AA2FB0323DB08E7
:10100C00DBB219460020FFF765FC734B1B68FA68CE
:10101C00D11A724BA3FB0123DA0813469B0013442D
:10102C005B00CA1AD3B219460120FFF753FC6A4B76
:10103C001B680133684A1360674B1B68FA689A4255
:10104C0040F08580624B02221A70634B00221A60BA
:10105C007DE0012220215F4800F02DFD002240217F
:10106C005C4800F028FD012280215A4800F023FD45
:10107C00594B1B68BA68D31A584AA2FB0323DB08E6
:10108C00DBB219460020FFF725FC534B1B68BA68EE
:10109C00D11A524BA3FB0123DA0813469B001344CD
:1010AC005B00CA1AD3B219460120FFF713FC4A4B56
:1010BC001B680133484A1360474B1B68BA689A4255
:1010CC0047D1434B00221A70434B00221A6040E078
:1010DC00012220213F4800F0EEFC012240213D4836
:1010EC0000F0E9FC002280213A4800F0E4FC3A4B85
:1010FC001B687A68D31A394AA2FB0323DB08DBB2DC
:10110C0019460020FFF7E6FB334B1B687A68D11AAF
:10111C00324BA3FB0123DA0813469B0013445B00FC
:10112C00CA1AD3B219460120FFF7D4FB2A4B1B680D
:10113C000133294A1360284B1B687A689A420AD1FA
:10114C00234B01221A70244B00221A6003E000BFCB
:10115C003AE000BF38E000BF36E0FB68002B0ED150
:10116C00002220211B4800F0A6FC01224021194836
:10117C0000F0A1FC01228021164800F09CFCBB6809
:10118C00002B0ED101222021124800F094FC0022E9
:10119C004021104800F08FFC012280210D4800F006
:1011AC008AFC7B68002B0FD101222021094800F01A
:1011BC0082FC01224021074800F07DFC00228021A6
:1011CC00044800F078FCFFE700BF1037BD4680BD37
:1011DC00BD00002000080140C0000020CDCCCCCCCC
:1011EC0080B584B000AFF860B9607A60FB68002B02
:1011FC0008D1BB68002B05D17B68002B02D1FFF70F
:10120C0095FE25E1FB68002B00F0E280BB68002B0B
:10121C0000F0DE807B68002B00F0DA808E4B1B78B0
:10122C00022B00F08D80022B00F31281002B02D0D8
:10123C00012B43D00CE100224FF48071874800F061
:10124C003AFC01224FF40071844800F034FC012276
:10125C004FF48061814800F02EFC814B1B68FA68CA
:10126C00D31A804AA2FB0323DB08DBB21946022007
:10127C00FFF730FB7A4B1B68FA68D11A794BA3FB4A
:10128C000123DA0813469B0013445B00CA1AD3B23D
:10129C0019460320FFF71EFB714B1B680133704A84
:1012AC0013606F4B1B68FA689A4240F08B806A4B54
:1012BC0002221A706A4B00221A6083E001224FF45A
:1012CC008071664800F0F7FB00224FF40071634810
:1012DC0000F0F1FB01224FF48061604800F0EBFB61
:1012EC005F4B1B68BA68D31A5E4AA2FB0323DB0868
:1012FC00DBB219460220FFF7EDFA594B1B68BA68AE
:10130C00D11A584BA3FB0123DA0813469B00134454
:10131C005B00CA1AD3B219460320FFF7DBFA504B15
:10132C001B6801334E4A13604D4B1B68BA689A42D6
:10133C004AD1494B00221A70494B00221A6043E0F3
:10134C0001224FF48071454800F0B5FB01224FF4A7
:10135C000071424800F0AFFB00224FF480613F481F
:10136C0000F0A9FB3E4B1B687A68D31A3D4AA2FBDE
:10137C000323DB08DBB219460220FFF7ABFA384B2C
:10138C001B687A68D11A374BA3FB0123DA08134682
:10139C009B0013445B00CA1AD3B219460320FFF713
:1013AC0099FA2F4B1B6801332D4A13602C4B1B6889
:1013BC007A689A420AD1284B01221A70284B0022D3
:1013CC001A6003E000BF43E000BF41E000BF3FE014
:1013DC00FB68002B11D100224FF480711F4800F0E4
:1013EC006AFB01224FF400711C4800F064FB0122DF
:1013FC004FF48061194800F05EFBBB68002B11D1E3
:10140C0001224FF48071154800F055FB00224FF477
:10141C000071124800F04FFB01224FF480610F481D
:10142C0000F049FB7B68002B12D101224FF4807134
:10143C000A4800F040FB01224FF40071074800F00D
:10144C003AFB00224FF48061044800F034FBFFE7C4
:10145C0000BF1037BD4680BD6C0000200008014065
:10146C00C4000020CDCCCCCC0C480D490D4A002337
:10147C0002E0D458C4500433C4188C42F9D30A4A3D
:10148C000A4C002301E013600432A242FBD3FFF7A5
:10149C00E5FC01F0F5FAFFF7D9FA704700000020DF
:1014AC0078000020242B0008780000202401002064
:1014BC00FEE7000080B500AF084B1B68074A43F0FD
:1014CC0010031360032000F023F90F2000F008F83C
:1014DC00FFF73CFC0023184680BD00BF00200240F3
:1014EC0080B582B000AF7860124B1A68124B1B7833
:1014FC0019464FF47A73B3FBF1F3B2FBF3F31846CE
:10150C0000F03BF90346002B01D001230EE07B6871
:10151C000F2B0AD8002279684FF0FF3000F003F946
:10152C00064A7B681360002300E001231846083745
:10153C00BD4680BD680000207400002070000020B3
:10154C0080B400AF054B1B781A46054B1B6813443F
:10155C00034A136000BFBD4680BC70477400002076
:10156C002001002080B400AF024B1B681846BD461A
:10157C0080BC70472001002080B485B000AF78603B
:10158C007B6803F00703FB600C4BDB68BB60BA683D
:10159C004FF6FF031340BB60FB681A02BB68134392
:1015AC0043F0BF6343F40033BB60044ABB68D360B1
:1015BC0000BF1437BD4680BC704700BF00ED00E093
:1015CC0080B400AF044BDB681B0A03F0070318461A
:1015DC00BD4680BC704700BF00ED00E080B483B016
:1015EC0000AF0346FB7197F90730002B0BDBFB793F
:1015FC0003F01F02064997F907305B09012000FA36
:10160C0002F241F8232000BF0C37BD4680BC704766
:10161C0000E100E080B483B000AF03463960FB7199
:10162C0097F90730002B0ADB3B68DAB20C4997F9C3
:10163C0007301201D2B20B4483F800230AE03B6856
:10164C00DAB20849FB7903F00F03043B1201D2B262
:10165C000B441A7600BF0C37BD4680BC704700BFE8
:10166C0000E100E000ED00E080B489B000AFF8606C
:10167C00B9607A60FB6803F00703FB61FB69C3F197
:10168C000703042B28BF0423BB61FB690433062B1F
:10169C0002D9FB69033B00E000237B614FF0FF3272
:1016AC00BB6902FA03F3DA43BB681A407B699A40C0
:1016BC004FF0FF317B6901FA03F3D9437B680B4090
:1016CC00134318462437BD4680BC704780B582B0A2
:1016DC0000AF78607B68013BB3F1807F01D30123BD
:1016EC000FE00A4A7B68013B53600F214FF0FF303B
:1016FC00FFF790FF054B00229A60044B07221A60FB
:10170C00002318460837BD4680BD00BF10E000E03E
:10171C0080B582B000AF78607868FFF72DFF00BF0E
:10172C000837BD4680BD80B586B000AF0346B960B2
:10173C007A60FB7300237B61FFF742FF78617A6864
:10174C00B9687869FFF790FF024697F90F30114698
:10175C001846FFF75FFF00BF1837BD4680BD80B548
:10176C0082B000AF0346FB7197F907301846FFF7BC
:10177C0035FF00BF0837BD4680BD80B582B000AFD5
:10178C0078607868FFF7A2FF034618460837BD4615
:10179C0080BD000080B48BB000AF7860396000234E
:1017AC007B6200233B6248E101227B6A02FA03F36D
:1017BC00FB613B681B68FA691340BB61BA69FB6942
:1017CC009A4240F037813B685B68A34A93425ED0F3
:1017DC00A14A934275D8A14A934258D09F4A93424A
:1017EC006FD89F4A934252D09D4A934269D89D4AE2
:1017FC0093424CD09B4A934263D89B4A934246D027
:10180C00994A93425DD8122B2AD8122B59D801A28F
:10181C0052F823F09B180008751800088718000868
:10182C00C9180008CF180008CF180008CF180008F6
:10183C00CF180008CF180008CF180008CF180008E0
:10184C00CF180008CF180008CF180008CF180008D0
:10185C00CF180008CF1800087D1800089118000850
:10186C00824A934213D02CE03B68DB683B6229E050
:10187C003B68DB6804333B6224E03B68DB6808337D
:10188C003B621FE03B68DB680C333B621AE03B6851
:10189C009B68002B02D104233B6213E03B689B68DE
:1018AC00012B05D108233B627B68FA691A6109E0B8
:1018BC0008233B627B68FA695A6103E000233B62B0
:1018CC0000E000BFBB69FF2B01D87B6801E07B689F
:1018DC0004337B61BB69FF2B02D87B6A9B0002E05F
:1018EC007B6A083B9B003B617B691A680F213B6953
:1018FC0001FA03F3DB431A40396A3B6901FA03F33B
:10190C001A437B691A603B685B6803F08053002BB9
:10191C0000F09080564B9B69554A43F0010393614C
:10192C00534B9B6903F00103BB60BB68514A7B6A54
:10193C009B08023352F82330FB607B6A03F00303ED
:10194C009B000F2202FA03F3DB43FA681340FB609F
:10195C007B68494A93420DD07B68484A934207D032
:10196C007B68474A934201D1022304E0032302E03F
:10197C00012300E000237A6A02F0030292009340F4
:10198C00FA681343FB603B497B6A9B080233FA6895
:10199C0041F823203B685B6803F48033002B06D0AE
:1019AC00384B1A683749BB6913430B6006E0354B5B
:1019BC001A68BB69DB43334913400B603B685B68B7
:1019CC0003F40033002B06D02E4B5A682D49BB690B
:1019DC0013434B6006E02B4B5A68BB69DB43294928
:1019EC0013404B603B685B6803F48013002B06D0FC
:1019FC00244B9A682349BB6913438B6006E0214B47
:101A0C009A68BB69DB431F4913408B603B685B687A
:101A1C0003F40013002B06D01A4BDA681949BB6982
:101A2C001343CB6006E0174BDA68BB69DB431549FF
:101A3C001340CB607B6A01337B623B681A687B6A1C
:101A4C0022FA03F3002B7FF4AFAE00BF00BF2C379C
:101A5C00BD4680BC704700BF000032100000311042
:101A6C0000002210000021100000121000001110C4
:101A7C00001002400000014000080140000C014031
:101A8C00001001400004014080B485B000AF7860C4
:101A9C000B467B807B689A687B881340002B02D0B6
:101AAC000123FB7301E00023FB73FB7B1846143707
:101ABC00BD4680BC704780B483B000AF78600B46E5
:101ACC007B8013467B707B78002B03D07A887B68F5
:101ADC001A6103E07B881A047B681A6100BF0C371B
:101AEC00BD4680BC7047000080B586B000AF786002
:101AFC007B68002B01D101236CE27B681B6803F02F
:101B0C000103002B00F08780924B5B6803F00C0301
:101B1C00042B0CD08F4B5B6803F00C03082B12D1F9
:101B2C008C4B5B6803F48033B3F5803F0BD1894B4E
:101B3C001B6803F40033002B6CD07B685B68002BB4
:101B4C0068D1012346E27B685B68B3F5803F06D120
:101B5C00804B1B687F4A43F4803313602EE07B6814
:101B6C005B68002B0CD17B4B1B687A4A23F48033C7
:101B7C001360784B1B68774A23F4802313601DE0B5
:101B8C007B685B68B3F5A02F0CD1724B1B68714A54
:101B9C0043F4802313606F4B1B686E4A43F480330D
:101BAC0013600BE06B4B1B686A4A23F480331360A1
:101BBC00684B1B68674A23F4802313607B685B685F
:101BCC00002B13D0FFF7CEFC386108E0FFF7CAFCFE
:101BDC0002463B69D31A642B01D90323FAE15D4B0E
:101BEC001B6803F40033002BF0D014E0FFF7BAFCB1
:101BFC00386108E0FFF7B6FC02463B69D31A642B48
:101C0C0001D90323E6E1534B1B6803F40033002B8B
:101C1C00F0D100E000BF7B681B6803F00203002BCF
:101C2C0063D04C4B5B6803F00C03002B0BD0494B7F
:101C3C005B6803F00C03082B1CD1464B5B6803F468
:101C4C008033002B16D1434B1B6803F00203002B8F
:101C5C0005D07B681B69012B01D00123BAE13D4BF8
:101C6C001B6823F0F8027B685B69DB00394913437E
:101C7C000B603AE07B681B69002B20D0364B0122AD
:101C8C001A60FFF76FFC386108E0FFF76BFC024647
:101C9C003B69D31A022B01D903239BE12D4B1B6803
:101CAC0003F00203002BF0D02A4B1B6823F0F80240
:101CBC007B685B69DB00274913430B6015E0264BFF
:101CCC0000221A60FFF74EFC386108E0FFF74AFC6F
:101CDC0002463B69D31A022B01D903237AE11D4B2F
:101CEC001B6803F00203002BF0D17B681B6803F028
:101CFC000803002B3AD07B689B69002B19D0174B3B
:101D0C0001221A60FFF72EFC386108E0FFF72AFC6D
:101D1C0002463B69D31A022B01D903235AE10D4B1E
:101D2C005B6A03F00203002BF0D0012000F0A6FA4E
:101D3C001CE00A4B00221A60FFF714FC38610FE01C
:101D4C00FFF710FC02463B69D31A022B08D9032378
:101D5C0040E100BF001002400000424280044242B9
:101D6C009E4B5B6A03F00203002BE9D17B681B6876
:101D7C0003F00403002B00F0A6800023FB75974BA7
:101D8C00DB6903F08053002B0DD1944BDB69934A34
:101D9C0043F08053D361914BDB6903F08053BB60FC
:101DAC00BB680123FB758E4B1B6803F48073002BFF
:101DBC0018D18B4B1B688A4A43F480731360FFF76E
:101DCC00D1FB386108E0FFF7CDFB02463B69D31A23
:101DDC00642B01D90323FDE0814B1B6803F4807352
:101DEC00002BF0D07B68DB68012B06D17B4B1B6A88
:101DFC007A4A43F0010313622DE07B68DB68002B09
:101E0C000CD1764B1B6A754A23F001031362734B9A
:101E1C001B6A724A23F0040313621CE07B68DB68C4
:101E2C00052B0CD16D4B1B6A6C4A43F004031362F7
:101E3C006A4B1B6A694A43F0010313620BE0674B60
:101E4C001B6A664A23F001031362644B1B6A634AE4
:101E5C0023F0040313627B68DB68002B15D0FFF7BB
:101E6C0081FB38610AE0FFF77DFB02463B69D31A20
:101E7C0041F28832934201D90323ABE0574B1B6AE2
:101E8C0003F00203002BEED014E0FFF76BFB38617C
:101E9C000AE0FFF767FB02463B69D31A41F288322E
:101EAC00934201D9032395E04C4B1B6A03F00203C8
:101EBC00002BEED1FB7D012B05D1484BDB69474A4A
:101ECC0023F08053D3617B68DB69002B00F08180A9
:101EDC00424B5B6803F00C03082B61D07B68DB6919
:101EEC00022B46D13F4B00221A60FFF73BFB3861B7
:101EFC0008E0FFF737FB02463B69D31A022B01D9E6
:101F0C00032367E0354B1B6803F00073002BF0D103
:101F1C007B681B6AB3F5803F08D1304B5B6823F4B8
:101F2C0000327B689B682D4913434B602B4B5B68DD
:101F3C0023F474127B68196A7B685B6A0B4327492C
:101F4C0013434B60274B01221A60FFF70BFB3861E0
:101F5C0008E0FFF707FB02463B69D31A022B01D9B5
:101F6C00032337E01D4B1B6803F00073002BF0D0EC
:101F7C002FE01C4B00221A60FFF7F4FA386108E0DE
:101F8C00FFF7F0FA02463B69D31A022B01D903235F
:101F9C0020E0124B1B6803F00073002BF0D118E00B
:101FAC007B68DB69012B01D1012313E00B4B5B68D0
:101FBC00FB60FB6803F480327B681B6A9A4206D193
:101FCC00FB6803F470127B685B6A9A4201D00123B0
:101FDC0000E0002318461837BD4680BD00100240B3
:101FEC00007000406000424280B584B000AF786061
:101FFC0039607B68002B01D10123D0E06A4B1B6850
:10200C0003F007033A689A4210D9674B1B6823F018
:10201C00070265493B6813430B60634B1B6803F075
:10202C0007033A689A4201D00123B8E07B681B6829
:10203C0003F00203002B20D07B681B6803F0040321
:10204C00002B05D0594B5B68584A43F4E06353604E
:10205C007B681B6803F00803002B05D0534B5B68AF
:10206C00524A43F460535360504B5B6823F0F002C8
:10207C007B689B684D4913434B607B681B6803F07E
:10208C000103002B40D07B685B68012B07D1474BC9
:10209C001B6803F40033002B15D101237FE07B6810
:1020AC005B68022B07D1414B1B6803F00073002BBC
:1020BC0009D1012373E03D4B1B6803F00203002B95
:1020CC0001D101236BE0394B5B6823F003027B6881
:1020DC005B68364913434B60FFF744FAF8600AE03B
:1020EC00FFF740FA0246FB68D31A41F2883293425A
:1020FC0001D9032353E02D4B5B6803F00C027B6882
:10210C005B689B009A42EBD1274B1B6803F00703DB
:10211C003A689A4210D2244B1B6823F007022249DA
:10212C003B6813430B60204B1B6803F007033A68B2
:10213C009A4201D0012332E07B681B6803F0040350
:10214C00002B08D0194B5B6823F4E0627B68DB68DA
:10215C00164913434B607B681B6803F00803002B84
:10216C0009D0124B5B6823F460527B681B69DB005F
:10217C000E4913434B6000F021F802460B4B5B6891
:10218C001B0903F00F030A49CB5C22FA03F3094A3B
:10219C001360094B1B681846FFF7A2F90023184679
:1021AC001037BD4680BD00BF002002400010024029
:1021BC000C2B0008680000207000002090B48AB03E
:1021CC0000AF2A4B3C1D0FCB84E80F0040F20123DB
:1021DC003B800023FB610023BB6100237B62002357
:1021EC007B6100233B62224B5B68FB61FB6903F064
:1021FC000C03042B02D0082B03D02DE01D4B3B62AB
:10220C002DE0FB699B0C03F00F0307F1280213442C
:10221C0013F8243C7B61FB6903F48033002B13D04F
:10222C00134B5B685B0C03F0010307F128021344AA
:10223C0013F8283CBB617B690E4A02FB03F2BB69B5
:10224C00B2FBF3F37B6204E07B690B4A02FB03F302
:10225C007B627B6A3B6202E0064B3B6200BF3B6ADF
:10226C0018462837BD4690BC704700BFFC2A0008B2
:10227C000010024000127A0000093D0080B485B0C5
:10228C0000AF78600A4B1B680A4AA2FB03235B0A67
:10229C007A6802FB03F3FB6000BFFB685A1EFA600E
:1022AC00002BF9D100BF00BF1437BD4680BC70476E
:1022BC0068000020D34D621080B582B000AF78600A
:1022CC007B68002B01D1012341E07B6893F83D3002
:1022DC00DBB2002B06D17B68002283F83C207868A7
:1022EC00FEF766FD7B68022283F83D207B681A6846
:1022FC007B6804331946104600F06AFA7B680122A9
:10230C0083F846207B68012283F83E207B680122FB
:10231C0083F83F207B68012283F840207B680122F0
:10232C0083F841207B68012283F842207B680122DC
:10233C0083F843207B68012283F844207B680122C8
:10234C0083F845207B68012283F83D200023184642
:10235C000837BD4680BD000080B485B000AF786002
:10236C007B6893F83D30DBB2012B01D0012335E0C3
:10237C007B68022283F83D207B681B68DA687B68E7
:10238C001B6842F00102DA607B681B68164A9342B4
:10239C0009D07B681B68B3F1804F04D07B681B6845
:1023AC00124A934211D17B681B689B6803F00703A8
:1023BC00FB60FB68062B10D07B681B681A687B6877
:1023CC001B6842F001021A6007E07B681B681A6800
:1023DC007B681B6842F001021A6000231846143710
:1023EC00BD4680BC704700BF002C0140000400407B
:1023FC0080B582B000AF78607B681B681B6903F006
:10240C000203022B22D17B681B68DB6803F00203FA
:10241C00022B1BD17B681B686FF002021A617B6870
:10242C0001221A777B681B689B6903F00303002B5E
:10243C0003D0786800F0B1F905E0786800F0A4F9F1
:10244C00786800F0B3F97B6800221A777B681B6808
:10245C001B6903F00403042B22D17B681B68DB6827
:10246C0003F00403042B1BD17B681B686FF0040280
:10247C001A617B6802221A777B681B689B6903F4DC
:10248C004073002B03D0786800F087F905E078687A
:10249C0000F07AF9786800F089F97B6800221A77E5
:1024AC007B681B681B6903F00803082B22D17B682F
:1024BC001B68DB6803F00803082B1BD17B681B68C7
:1024CC006FF008021A617B6804221A777B681B681C
:1024DC00DB6903F00303002B03D0786800F05DF98F
:1024EC0005E0786800F050F9786800F05FF97B68D7
:1024FC0000221A777B681B681B6903F01003102BF2
:10250C0022D17B681B68DB6803F01003102B1BD1F6
:10251C007B681B686FF010021A617B6808221A77BF
:10252C007B681B68DB6903F44073002B03D078686D
:10253C0000F033F905E0786800F026F9786800F0CF
:10254C0035F97B6800221A777B681B681B6903F0DE
:10255C000103012B0ED17B681B68DB6803F00103C0
:10256C00012B07D17B681B686FF001021A61786838
:10257C00FEF7CAFC7B681B681B6903F08003802B89
:10258C000ED17B681B68DB6803F08003802B07D1BE
:10259C007B681B686FF080021A61786800F067FA3C
:1025AC007B681B681B6903F04003402B0ED17B68D2
:1025BC001B68DB6803F04003402B07D17B681B686A
:1025CC006FF040021A61786800F0F9F87B681B68BC
:1025DC001B6903F02003202B0ED17B681B68DB6882
:1025EC0003F02003202B07D17B681B686FF02002BF
:1025FC001A61786800F032FA00BF0837BD4680BD1A
:10260C0080B584B000AF786039607B6893F83C305B
:10261C00012B01D10223B3E07B68012283F83C201B
:10262C007B68022283F83D207B681B689B68FB60FB
:10263C00FB6823F07703FB60FB6823F47F43FB60AC
:10264C007B681B68FA689A603B681B68B3F5005F8F
:10265C003ED0B3F5005F00F28780B3F5805F00F0E9
:10266C008580B3F5805F7FD8702B1AD0702B7BD808
:10267C00602B50D0602B77D8502B3CD0502B73D87C
:10268C00402B58D0402B6FD8302B64D0302B6BD8CC
:10269C00202B60D0202B67D8002B5CD0102B5AD06D
:1026AC0062E07B6818683B6899683B685A683B68CD
:1026BC00DB6800F05CF97B681B689B68FB60FB685F
:1026CC0043F07703FB607B681B68FA689A604EE006
:1026DC007B6818683B6899683B685A683B68DB689C
:1026EC0000F045F97B681B689A687B681B6842F4AC
:1026FC0080429A603BE07B6818683B6859683B688D
:10270C00DB681A4600F0BCF87B681B685021184641
:10271C0000F013F92BE07B6818683B6859683B683C
:10272C00DB681A4600F0DAF87B681B6860211846F3
:10273C0000F003F91BE07B6818683B6859683B683C
:10274C00DB681A4600F09CF87B681B684021184631
:10275C0000F0F3F80BE07B681A683B681B681946BD
:10276C00104600F0EAF802E000BF00E000BF7B6812
:10277C00012283F83D207B68002283F83C20002353
:10278C0018461037BD4680BD80B483B000AF78606A
:10279C0000BF0C37BD4680BC704780B483B000AF1F
:1027AC00786000BF0C37BD4680BC704780B483B0E6
:1027BC0000AF786000BF0C37BD4680BC704780B45A
:1027CC0083B000AF786000BF0C37BD4680BC70474B
:1027DC0080B485B000AF786039607B681B68FB60A3
:1027EC007B68254A934207D07B68B3F1804F03D0B6
:1027FC007B68224A934208D1FB6823F07003FB608C
:10280C003B685B68FA681343FB607B681A4A934227
:10281C0007D07B68B3F1804F03D07B68174A934293
:10282C0008D1FB6823F44073FB603B68DB68FA68F3
:10283C001343FB60FB6823F080023B685B69134326
:10284C00FB607B68FA681A603B689A687B68DA629E
:10285C003B681A687B689A627B68074A934203D18B
:10286C003B681A697B681A637B6801225A6100BF56
:10287C001437BD4680BC7047002C0140000400405A
:10288C0080B487B000AFF860B9607A60FB681B6AEF
:10289C007B61FB681B6A23F00102FB681A62FB6810
:1028AC009B693B613B6923F0F0033B617B681B0137
:1028BC003A6913433B617B6923F00A037B617A69B4
:1028CC00BB6813437B61FB683A699A61FB687A6960
:1028DC001A6200BF1C37BD4680BC704780B487B0FD
:1028EC0000AFF860B9607A60FB681B6A23F01002D5
:1028FC00FB681A62FB689B697B61FB681B6A3B6126
:10290C007B6923F470437B617B681B037A691343F7
:10291C007B613B6923F0A0033B61BB681B013A69F7
:10292C0013433B61FB687A699A61FB683A691A62E6
:10293C0000BF1C37BD4680BC704780B485B000AF6B
:10294C00786039607B689B68FB60FB6823F07003E0
:10295C00FB603A68FB68134343F00703FB607B683A
:10296C00FA689A6000BF1437BD4680BC704780B4CB
:10297C0087B000AFF860B9607A603B60FB689B6819
:10298C007B617B6923F47F437B613B681A027B6824
:10299C001A43BB6813437A6913437B61FB687A69FA
:1029AC009A6000BF1C37BD4680BC704780B485B0B0
:1029BC0000AF786039607B6893F83C30012B01D113
:1029CC00022341E07B68012283F83C207B680222D1
:1029DC0083F83D207B681B685B68FB607B681B6829
:1029EC009B68BB60FB6823F07003FB603B681B6853
:1029FC00FA681343FB607B681B68FA685A607B6853
:102A0C001B68144A934209D07B681B68B3F1804F52
:102A1C0004D07B681B68104A93420CD1BB6823F02E
:102A2C008003BB603B685B68BA681343BB607B6820
:102A3C001B68BA689A607B68012283F83D207B682A
:102A4C00002283F83C20002318461437BD4680BC76
:102A5C00704700BF002C01400004004080B483B0DC
:102A6C0000AF786000BF0C37BD4680BC704780B4A7
:102A7C0083B000AF786000BF0C37BD4680BC704798
:102A8C0070B500260C4D0D4C641BA410A64209D148
:102A9C0000F022F800260A4D0A4C641BA410A64232
:102AAC0005D170BD55F8043B98470136EEE755F853
:102ABC00043B98470136F2E71C2B00081C2B00083E
:102ACC001C2B0008202B000803460244934200D123
:102ADC00704703F8011BF9E7F8B500BFF8BC08BC58
:102AEC009E467047F8B500BFF8BC08BC9E467047C0
:102AFC0002030405060708090A0B0C0D0E0F101033
:102B0C000000000000000000010203040607080991
:042B1C00310100087B
:042B20000D0100089B
:102B24000100020004000800000801400008014000
:102B340000080140000801403F065B4F666D7D07B9
:102B44007F6F00001000200040008000000C014056
:102B5400000C0140000C0140000C01400002000484
:102B6400000800100020004000800000000C01401C
:102B7400000C0140000C0140000C0140000C01401D
:102B8400000C0140000C01400024F400020000008D
:082B9400100000000100000028
:040000050800147566
:00000001FF
